{
  "_format": "hh-sol-artifact-1",
  "contractName": "FTMCropFarm",
  "sourceName": "contracts/FTMCropFarm.sol",
  "abi": [
    {
      "inputs": [
        {
          "internalType": "address payable",
          "name": "_dev1",
          "type": "address"
        },
        {
          "internalType": "address payable",
          "name": "_dev2",
          "type": "address"
        },
        {
          "internalType": "address payable",
          "name": "_dev3",
          "type": "address"
        },
        {
          "internalType": "address payable",
          "name": "_prtnr1",
          "type": "address"
        },
        {
          "internalType": "address payable",
          "name": "_prtnr2",
          "type": "address"
        },
        {
          "internalType": "address payable",
          "name": "_mkt",
          "type": "address"
        }
      ],
      "stateMutability": "nonpayable",
      "type": "constructor"
    },
    {
      "inputs": [
        {
          "internalType": "uint256",
          "name": "value",
          "type": "uint256"
        }
      ],
      "name": "BONUS_COMPOUND_STEP",
      "outputs": [],
      "stateMutability": "nonpayable",
      "type": "function"
    },
    {
      "inputs": [
        {
          "internalType": "uint256",
          "name": "value",
          "type": "uint256"
        }
      ],
      "name": "BONUS_DAILY_COMPOUND",
      "outputs": [],
      "stateMutability": "nonpayable",
      "type": "function"
    },
    {
      "inputs": [
        {
          "internalType": "uint256",
          "name": "value",
          "type": "uint256"
        }
      ],
      "name": "BONUS_DAILY_COMPOUND_BONUS_MAX_TIMES",
      "outputs": [],
      "stateMutability": "nonpayable",
      "type": "function"
    },
    {
      "inputs": [
        {
          "internalType": "address",
          "name": "",
          "type": "address"
        }
      ],
      "name": "Blacklisted",
      "outputs": [
        {
          "internalType": "bool",
          "name": "",
          "type": "bool"
        }
      ],
      "stateMutability": "view",
      "type": "function"
    },
    {
      "inputs": [
        {
          "internalType": "address",
          "name": "value",
          "type": "address"
        }
      ],
      "name": "CHANGE_OWNERSHIP",
      "outputs": [],
      "stateMutability": "nonpayable",
      "type": "function"
    },
    {
      "inputs": [],
      "name": "COMPOUND_BONUS",
      "outputs": [
        {
          "internalType": "uint256",
          "name": "",
          "type": "uint256"
        }
      ],
      "stateMutability": "view",
      "type": "function"
    },
    {
      "inputs": [],
      "name": "COMPOUND_BONUS_MAX_TIMES",
      "outputs": [
        {
          "internalType": "uint256",
          "name": "",
          "type": "uint256"
        }
      ],
      "stateMutability": "view",
      "type": "function"
    },
    {
      "inputs": [],
      "name": "COMPOUND_FOR_NO_TAX_WITHDRAWAL",
      "outputs": [
        {
          "internalType": "uint256",
          "name": "",
          "type": "uint256"
        }
      ],
      "stateMutability": "view",
      "type": "function"
    },
    {
      "inputs": [],
      "name": "COMPOUND_STEP",
      "outputs": [
        {
          "internalType": "uint256",
          "name": "",
          "type": "uint256"
        }
      ],
      "stateMutability": "view",
      "type": "function"
    },
    {
      "inputs": [],
      "name": "CUTOFF_STEP",
      "outputs": [
        {
          "internalType": "uint256",
          "name": "",
          "type": "uint256"
        }
      ],
      "stateMutability": "view",
      "type": "function"
    },
    {
      "inputs": [],
      "name": "EGGS_TO_HIRE_1MINERS",
      "outputs": [
        {
          "internalType": "uint256",
          "name": "",
          "type": "uint256"
        }
      ],
      "stateMutability": "view",
      "type": "function"
    },
    {
      "inputs": [],
      "name": "MARKET_EGGS_DIVISOR",
      "outputs": [
        {
          "internalType": "uint256",
          "name": "",
          "type": "uint256"
        }
      ],
      "stateMutability": "view",
      "type": "function"
    },
    {
      "inputs": [],
      "name": "MARKET_EGGS_DIVISOR_SELL",
      "outputs": [
        {
          "internalType": "uint256",
          "name": "",
          "type": "uint256"
        }
      ],
      "stateMutability": "view",
      "type": "function"
    },
    {
      "inputs": [],
      "name": "MIN_INVEST_LIMIT",
      "outputs": [
        {
          "internalType": "uint256",
          "name": "",
          "type": "uint256"
        }
      ],
      "stateMutability": "view",
      "type": "function"
    },
    {
      "inputs": [],
      "name": "PERCENTS_DIVIDER",
      "outputs": [
        {
          "internalType": "uint256",
          "name": "",
          "type": "uint256"
        }
      ],
      "stateMutability": "view",
      "type": "function"
    },
    {
      "inputs": [
        {
          "internalType": "uint256",
          "name": "value",
          "type": "uint256"
        }
      ],
      "name": "PRC_EGGS_TO_HIRE_1MINERS",
      "outputs": [],
      "stateMutability": "nonpayable",
      "type": "function"
    },
    {
      "inputs": [
        {
          "internalType": "uint256",
          "name": "value",
          "type": "uint256"
        }
      ],
      "name": "PRC_MARKET_EGGS_DIVISOR",
      "outputs": [],
      "stateMutability": "nonpayable",
      "type": "function"
    },
    {
      "inputs": [
        {
          "internalType": "uint256",
          "name": "value",
          "type": "uint256"
        }
      ],
      "name": "PRC_MARKET_EGGS_DIVISOR_SELL",
      "outputs": [],
      "stateMutability": "nonpayable",
      "type": "function"
    },
    {
      "inputs": [
        {
          "internalType": "uint256",
          "name": "value",
          "type": "uint256"
        }
      ],
      "name": "PRC_MKT",
      "outputs": [],
      "stateMutability": "nonpayable",
      "type": "function"
    },
    {
      "inputs": [
        {
          "internalType": "uint256",
          "name": "value",
          "type": "uint256"
        }
      ],
      "name": "PRC_REFERRAL",
      "outputs": [],
      "stateMutability": "nonpayable",
      "type": "function"
    },
    {
      "inputs": [
        {
          "internalType": "uint256",
          "name": "value",
          "type": "uint256"
        }
      ],
      "name": "PRC_TAX",
      "outputs": [],
      "stateMutability": "nonpayable",
      "type": "function"
    },
    {
      "inputs": [],
      "name": "REFERRAL",
      "outputs": [
        {
          "internalType": "uint256",
          "name": "",
          "type": "uint256"
        }
      ],
      "stateMutability": "view",
      "type": "function"
    },
    {
      "inputs": [
        {
          "internalType": "uint256",
          "name": "value",
          "type": "uint256"
        }
      ],
      "name": "SET_COMPOUND_FOR_NO_TAX_WITHDRAWAL",
      "outputs": [],
      "stateMutability": "nonpayable",
      "type": "function"
    },
    {
      "inputs": [
        {
          "internalType": "uint256",
          "name": "value",
          "type": "uint256"
        }
      ],
      "name": "SET_CUTOFF_STEP",
      "outputs": [],
      "stateMutability": "nonpayable",
      "type": "function"
    },
    {
      "inputs": [
        {
          "internalType": "uint256",
          "name": "value",
          "type": "uint256"
        }
      ],
      "name": "SET_INVEST_MIN",
      "outputs": [],
      "stateMutability": "nonpayable",
      "type": "function"
    },
    {
      "inputs": [
        {
          "internalType": "uint256",
          "name": "value",
          "type": "uint256"
        }
      ],
      "name": "SET_WALLET_DEPOSIT_LIMIT",
      "outputs": [],
      "stateMutability": "nonpayable",
      "type": "function"
    },
    {
      "inputs": [
        {
          "internalType": "uint256",
          "name": "value",
          "type": "uint256"
        }
      ],
      "name": "SET_WITHDRAWAL_TAX",
      "outputs": [],
      "stateMutability": "nonpayable",
      "type": "function"
    },
    {
      "inputs": [
        {
          "internalType": "uint256",
          "name": "value",
          "type": "uint256"
        }
      ],
      "name": "SET_WITHDRAW_COOLDOWN",
      "outputs": [],
      "stateMutability": "nonpayable",
      "type": "function"
    },
    {
      "inputs": [],
      "name": "WALLET_DEPOSIT_LIMIT",
      "outputs": [
        {
          "internalType": "uint256",
          "name": "",
          "type": "uint256"
        }
      ],
      "stateMutability": "view",
      "type": "function"
    },
    {
      "inputs": [],
      "name": "WITHDRAWAL_TAX",
      "outputs": [
        {
          "internalType": "uint256",
          "name": "",
          "type": "uint256"
        }
      ],
      "stateMutability": "view",
      "type": "function"
    },
    {
      "inputs": [],
      "name": "WITHDRAW_COOLDOWN",
      "outputs": [
        {
          "internalType": "uint256",
          "name": "",
          "type": "uint256"
        }
      ],
      "stateMutability": "view",
      "type": "function"
    },
    {
      "inputs": [
        {
          "internalType": "address",
          "name": "Wallet",
          "type": "address"
        },
        {
          "internalType": "bool",
          "name": "isBlacklisted",
          "type": "bool"
        }
      ],
      "name": "blackListWallet",
      "outputs": [],
      "stateMutability": "nonpayable",
      "type": "function"
    },
    {
      "inputs": [
        {
          "internalType": "address[]",
          "name": "Wallet",
          "type": "address[]"
        },
        {
          "internalType": "bool",
          "name": "isBlacklisted",
          "type": "bool"
        }
      ],
      "name": "blackMultipleWallets",
      "outputs": [],
      "stateMutability": "nonpayable",
      "type": "function"
    },
    {
      "inputs": [],
      "name": "blacklistActive",
      "outputs": [
        {
          "internalType": "bool",
          "name": "",
          "type": "bool"
        }
      ],
      "stateMutability": "view",
      "type": "function"
    },
    {
      "inputs": [
        {
          "internalType": "uint256",
          "name": "eth",
          "type": "uint256"
        },
        {
          "internalType": "uint256",
          "name": "contractBalance",
          "type": "uint256"
        }
      ],
      "name": "calculateEggBuy",
      "outputs": [
        {
          "internalType": "uint256",
          "name": "",
          "type": "uint256"
        }
      ],
      "stateMutability": "view",
      "type": "function"
    },
    {
      "inputs": [
        {
          "internalType": "uint256",
          "name": "eth",
          "type": "uint256"
        }
      ],
      "name": "calculateEggBuySimple",
      "outputs": [
        {
          "internalType": "uint256",
          "name": "",
          "type": "uint256"
        }
      ],
      "stateMutability": "view",
      "type": "function"
    },
    {
      "inputs": [
        {
          "internalType": "uint256",
          "name": "eggs",
          "type": "uint256"
        }
      ],
      "name": "calculateEggSell",
      "outputs": [
        {
          "internalType": "uint256",
          "name": "",
          "type": "uint256"
        }
      ],
      "stateMutability": "view",
      "type": "function"
    },
    {
      "inputs": [
        {
          "internalType": "uint256",
          "name": "eggs",
          "type": "uint256"
        },
        {
          "internalType": "uint256",
          "name": "amount",
          "type": "uint256"
        }
      ],
      "name": "calculateEggSellForYield",
      "outputs": [
        {
          "internalType": "uint256",
          "name": "",
          "type": "uint256"
        }
      ],
      "stateMutability": "view",
      "type": "function"
    },
    {
      "inputs": [
        {
          "internalType": "uint256",
          "name": "rt",
          "type": "uint256"
        },
        {
          "internalType": "uint256",
          "name": "rs",
          "type": "uint256"
        },
        {
          "internalType": "uint256",
          "name": "bs",
          "type": "uint256"
        }
      ],
      "name": "calculateTrade",
      "outputs": [
        {
          "internalType": "uint256",
          "name": "",
          "type": "uint256"
        }
      ],
      "stateMutability": "view",
      "type": "function"
    },
    {
      "inputs": [
        {
          "internalType": "address",
          "name": "Wallet",
          "type": "address"
        }
      ],
      "name": "checkIfBlacklisted",
      "outputs": [
        {
          "internalType": "bool",
          "name": "blacklisted",
          "type": "bool"
        }
      ],
      "stateMutability": "view",
      "type": "function"
    },
    {
      "inputs": [],
      "name": "fundContract",
      "outputs": [],
      "stateMutability": "payable",
      "type": "function"
    },
    {
      "inputs": [],
      "name": "fundContractAndHoard",
      "outputs": [],
      "stateMutability": "payable",
      "type": "function"
    },
    {
      "inputs": [
        {
          "internalType": "address",
          "name": "_adr",
          "type": "address"
        }
      ],
      "name": "getAvailableEarnings",
      "outputs": [
        {
          "internalType": "uint256",
          "name": "",
          "type": "uint256"
        }
      ],
      "stateMutability": "view",
      "type": "function"
    },
    {
      "inputs": [],
      "name": "getBalance",
      "outputs": [
        {
          "internalType": "uint256",
          "name": "",
          "type": "uint256"
        }
      ],
      "stateMutability": "view",
      "type": "function"
    },
    {
      "inputs": [
        {
          "internalType": "address",
          "name": "_adr",
          "type": "address"
        },
        {
          "internalType": "uint256",
          "name": "amount",
          "type": "uint256"
        }
      ],
      "name": "getDailyCompoundBonus",
      "outputs": [
        {
          "internalType": "uint256",
          "name": "",
          "type": "uint256"
        }
      ],
      "stateMutability": "view",
      "type": "function"
    },
    {
      "inputs": [
        {
          "internalType": "address",
          "name": "adr",
          "type": "address"
        }
      ],
      "name": "getEggsSinceLastHatch",
      "outputs": [
        {
          "internalType": "uint256",
          "name": "",
          "type": "uint256"
        }
      ],
      "stateMutability": "view",
      "type": "function"
    },
    {
      "inputs": [
        {
          "internalType": "uint256",
          "name": "amount",
          "type": "uint256"
        }
      ],
      "name": "getEggsYield",
      "outputs": [
        {
          "internalType": "uint256",
          "name": "",
          "type": "uint256"
        },
        {
          "internalType": "uint256",
          "name": "",
          "type": "uint256"
        }
      ],
      "stateMutability": "view",
      "type": "function"
    },
    {
      "inputs": [],
      "name": "getMyEggs",
      "outputs": [
        {
          "internalType": "uint256",
          "name": "",
          "type": "uint256"
        }
      ],
      "stateMutability": "view",
      "type": "function"
    },
    {
      "inputs": [],
      "name": "getMyMiners",
      "outputs": [
        {
          "internalType": "uint256",
          "name": "",
          "type": "uint256"
        }
      ],
      "stateMutability": "view",
      "type": "function"
    },
    {
      "inputs": [],
      "name": "getSiteInfo",
      "outputs": [
        {
          "internalType": "uint256",
          "name": "_totalStaked",
          "type": "uint256"
        },
        {
          "internalType": "uint256",
          "name": "_totalDeposits",
          "type": "uint256"
        },
        {
          "internalType": "uint256",
          "name": "_totalCompound",
          "type": "uint256"
        },
        {
          "internalType": "uint256",
          "name": "_totalRefBonus",
          "type": "uint256"
        }
      ],
      "stateMutability": "view",
      "type": "function"
    },
    {
      "inputs": [],
      "name": "getTimeStamp",
      "outputs": [
        {
          "internalType": "uint256",
          "name": "",
          "type": "uint256"
        }
      ],
      "stateMutability": "view",
      "type": "function"
    },
    {
      "inputs": [
        {
          "internalType": "address",
          "name": "_adr",
          "type": "address"
        }
      ],
      "name": "getUserInfo",
      "outputs": [
        {
          "internalType": "uint256",
          "name": "_initialDeposit",
          "type": "uint256"
        },
        {
          "internalType": "uint256",
          "name": "_userDeposit",
          "type": "uint256"
        },
        {
          "internalType": "uint256",
          "name": "_miners",
          "type": "uint256"
        },
        {
          "internalType": "uint256",
          "name": "_claimedEggs",
          "type": "uint256"
        },
        {
          "internalType": "uint256",
          "name": "_lastHatch",
          "type": "uint256"
        },
        {
          "internalType": "address",
          "name": "_referrer",
          "type": "address"
        },
        {
          "internalType": "uint256",
          "name": "_referrals",
          "type": "uint256"
        },
        {
          "internalType": "uint256",
          "name": "_totalWithdrawn",
          "type": "uint256"
        },
        {
          "internalType": "uint256",
          "name": "_referralEggRewards",
          "type": "uint256"
        },
        {
          "internalType": "uint256",
          "name": "_dailyCompoundBonus",
          "type": "uint256"
        },
        {
          "internalType": "uint256",
          "name": "_farmerCompoundCount",
          "type": "uint256"
        },
        {
          "internalType": "uint256",
          "name": "_lastWithdrawTime",
          "type": "uint256"
        }
      ],
      "stateMutability": "view",
      "type": "function"
    },
    {
      "inputs": [
        {
          "internalType": "address",
          "name": "ref",
          "type": "address"
        }
      ],
      "name": "hireFarmers",
      "outputs": [],
      "stateMutability": "payable",
      "type": "function"
    },
    {
      "inputs": [
        {
          "internalType": "bool",
          "name": "isCompound",
          "type": "bool"
        }
      ],
      "name": "hireMoreFarmers",
      "outputs": [],
      "stateMutability": "nonpayable",
      "type": "function"
    },
    {
      "inputs": [],
      "name": "sellCrops",
      "outputs": [],
      "stateMutability": "nonpayable",
      "type": "function"
    },
    {
      "inputs": [
        {
          "internalType": "bool",
          "name": "isActive",
          "type": "bool"
        }
      ],
      "name": "setblacklistActive",
      "outputs": [],
      "stateMutability": "nonpayable",
      "type": "function"
    },
    {
      "inputs": [
        {
          "internalType": "address",
          "name": "addr",
          "type": "address"
        }
      ],
      "name": "startFarm",
      "outputs": [],
      "stateMutability": "payable",
      "type": "function"
    },
    {
      "inputs": [],
      "name": "totalCompound",
      "outputs": [
        {
          "internalType": "uint256",
          "name": "",
          "type": "uint256"
        }
      ],
      "stateMutability": "view",
      "type": "function"
    },
    {
      "inputs": [],
      "name": "totalDeposits",
      "outputs": [
        {
          "internalType": "uint256",
          "name": "",
          "type": "uint256"
        }
      ],
      "stateMutability": "view",
      "type": "function"
    },
    {
      "inputs": [],
      "name": "totalRefBonus",
      "outputs": [
        {
          "internalType": "uint256",
          "name": "",
          "type": "uint256"
        }
      ],
      "stateMutability": "view",
      "type": "function"
    },
    {
      "inputs": [],
      "name": "totalStaked",
      "outputs": [
        {
          "internalType": "uint256",
          "name": "",
          "type": "uint256"
        }
      ],
      "stateMutability": "view",
      "type": "function"
    },
    {
      "inputs": [],
      "name": "totalWithdrawn",
      "outputs": [
        {
          "internalType": "uint256",
          "name": "",
          "type": "uint256"
        }
      ],
      "stateMutability": "view",
      "type": "function"
    },
    {
      "inputs": [
        {
          "internalType": "address",
          "name": "",
          "type": "address"
        }
      ],
      "name": "users",
      "outputs": [
        {
          "internalType": "uint256",
          "name": "initialDeposit",
          "type": "uint256"
        },
        {
          "internalType": "uint256",
          "name": "userDeposit",
          "type": "uint256"
        },
        {
          "internalType": "uint256",
          "name": "miners",
          "type": "uint256"
        },
        {
          "internalType": "uint256",
          "name": "claimedEggs",
          "type": "uint256"
        },
        {
          "internalType": "uint256",
          "name": "lastHatch",
          "type": "uint256"
        },
        {
          "internalType": "address",
          "name": "referrer",
          "type": "address"
        },
        {
          "internalType": "uint256",
          "name": "referralsCount",
          "type": "uint256"
        },
        {
          "internalType": "uint256",
          "name": "referralEggRewards",
          "type": "uint256"
        },
        {
          "internalType": "uint256",
          "name": "totalWithdrawn",
          "type": "uint256"
        },
        {
          "internalType": "uint256",
          "name": "dailyCompoundBonus",
          "type": "uint256"
        },
        {
          "internalType": "uint256",
          "name": "farmerCompoundCount",
          "type": "uint256"
        },
        {
          "internalType": "uint256",
          "name": "lastWithdrawTime",
          "type": "uint256"
        }
      ],
      "stateMutability": "view",
      "type": "function"
    }
  ],
  "bytecode": "0x60806040526215f90060005560466001556103e860025560096003556009600455600580556002600655678ac7230489e8000060075569032d26d12e980b6000006008556014600955600a805561a8c0600b55610320600c55600a600d556127106014556113886015556001601660016101000a81548160ff0219169083151502179055506202a3006018556138406019553480156200009e57600080fd5b506040516200460b3803806200460b8339818101604052810190620000c49190620003c3565b620000d5866200034660201b60201c565b158015620000f15750620000ef856200034660201b60201c565b155b80156200010c57506200010a846200034660201b60201c565b155b801562000127575062000125836200034660201b60201c565b155b801562000142575062000140826200034660201b60201c565b155b80156200015d57506200015b816200034660201b60201c565b155b6200016757600080fd5b33601a60006101000a81548173ffffffffffffffffffffffffffffffffffffffff021916908373ffffffffffffffffffffffffffffffffffffffff16021790555085601b60006101000a81548173ffffffffffffffffffffffffffffffffffffffff021916908373ffffffffffffffffffffffffffffffffffffffff16021790555084601c60006101000a81548173ffffffffffffffffffffffffffffffffffffffff021916908373ffffffffffffffffffffffffffffffffffffffff16021790555083601d60006101000a81548173ffffffffffffffffffffffffffffffffffffffff021916908373ffffffffffffffffffffffffffffffffffffffff16021790555082601e60006101000a81548173ffffffffffffffffffffffffffffffffffffffff021916908373ffffffffffffffffffffffffffffffffffffffff16021790555081601f60006101000a81548173ffffffffffffffffffffffffffffffffffffffff021916908373ffffffffffffffffffffffffffffffffffffffff16021790555080602060006101000a81548173ffffffffffffffffffffffffffffffffffffffff021916908373ffffffffffffffffffffffffffffffffffffffff16021790555064218711a0006013819055505050505050506200045f565b600080823b905060008111915050919050565b600080fd5b600073ffffffffffffffffffffffffffffffffffffffff82169050919050565b60006200038b826200035e565b9050919050565b6200039d816200037e565b8114620003a957600080fd5b50565b600081519050620003bd8162000392565b92915050565b60008060008060008060c08789031215620003e357620003e262000359565b5b6000620003f389828a01620003ac565b96505060206200040689828a01620003ac565b95505060406200041989828a01620003ac565b94505060606200042c89828a01620003ac565b93505060806200043f89828a01620003ac565b92505060a06200045289828a01620003ac565b9150509295509295509295565b61419c806200046f6000396000f3fe6080604052600436106103b85760003560e01c80637d882097116101f2578063c63568c71161010d578063d9a3e887116100a0578063e75769431161006f578063e757694314610e00578063eb27126814610e29578063f6f6288614610e52578063ffa4e61814610e7d576103b8565b8063d9a3e88714610d86578063da235b2214610d90578063da5d4cc514610dbb578063e6dc955814610dd7576103b8565b8063d708c0ce116100dc578063d708c0ce14610ccc578063d7206d5d14610cf5578063d7c8843b14610d20578063d989b4b314610d5d576103b8565b8063c63568c714610c0e578063c688f0fb14610c39578063cc3e9c7814610c64578063cd329fc314610ca1576103b8565b80639b9cb69f11610185578063bd097e2111610154578063bd097e2114610b60578063bdd1ca2714610b6a578063bfa9f30414610ba8578063c3251b4014610bd1576103b8565b80639b9cb69f14610a9b5780639e9300a514610ac4578063a87430ba14610aed578063b6e6fcf614610b35576103b8565b8063817b1cd2116101c1578063817b1cd2146109df5780638e31632714610a0a578063950d91e914610a47578063959c95b314610a72576103b8565b80637d882097146109235780637db07c9d1461094e5780637e56fde5146109795780637ee28e3c146109b6576103b8565b806345a6a6e0116102e257806359eec895116102755780636f969d28116102445780636f969d281461087d578063752a2628146108a65780637a62ead7146108d15780637c8e4b4c146108fa576103b8565b806359eec895146107a25780636386c1c7146107cd57806364c03a5e1461081557806369b11dd514610852576103b8565b806350637dbd116102b157806350637dbd1461070957806350cf1c7a14610746578063570c297914610762578063573862251461078b576103b8565b806345a6a6e01461065e57806345f98c29146106875780634b319713146106b05780634ce87053146106db576103b8565b80631a7b8d4f1161035a5780632b039d0e116103295780632b039d0e146105b45780633578584f146105dd5780633a6cac7f1461060857806343ce742214610633576103b8565b80631a7b8d4f146104e8578063229824c41461051157806326fd84221461054e578063298ea3101461058b576103b8565b806312065fe01161039657806312065fe01461043e5780631848b8dc1461046957806318c819d814610494578063195a7339146104bd576103b8565b806301c234a8146103bd5780630420c98e146103e85780630a76e5ed14610413575b600080fd5b3480156103c957600080fd5b506103d2610eba565b6040516103df91906137a0565b60405180910390f35b3480156103f457600080fd5b506103fd610ec0565b60405161040a91906137a0565b60405180910390f35b34801561041f57600080fd5b50610428610ec6565b60405161043591906137a0565b60405180910390f35b34801561044a57600080fd5b50610453610f10565b60405161046091906137a0565b60405180910390f35b34801561047557600080fd5b5061047e610f18565b60405161048b91906137a0565b60405180910390f35b3480156104a057600080fd5b506104bb60048036038101906104b691906137fd565b610f1e565b005b3480156104c957600080fd5b506104d2611176565b6040516104df91906137a0565b60405180910390f35b3480156104f457600080fd5b5061050f600480360381019061050a9190613856565b61117c565b005b34801561051d57600080fd5b5061053860048036038101906105339190613883565b611224565b60405161054591906137a0565b60405180910390f35b34801561055a57600080fd5b50610575600480360381019061057091906138d6565b611277565b60405161058291906137a0565b60405180910390f35b34801561059757600080fd5b506105b260048036038101906105ad9190613856565b61128e565b005b3480156105c057600080fd5b506105db60048036038101906105d69190613974565b611336565b005b3480156105e957600080fd5b506105f261140a565b6040516105ff91906137a0565b60405180910390f35b34801561061457600080fd5b5061061d611410565b60405161062a91906137a0565b60405180910390f35b34801561063f57600080fd5b50610648611416565b60405161065591906137a0565b60405180910390f35b34801561066a57600080fd5b5061068560048036038101906106809190613856565b61147a565b005b34801561069357600080fd5b506106ae60048036038101906106a99190613856565b611539565b005b3480156106bc57600080fd5b506106c56115e6565b6040516106d291906137a0565b60405180910390f35b3480156106e757600080fd5b506106f06115ec565b60405161070094939291906139a1565b60405180910390f35b34801561071557600080fd5b50610730600480360381019061072b91906139e6565b61160c565b60405161073d91906137a0565b60405180910390f35b610760600480360381019061075b9190613974565b6116f3565b005b34801561076e57600080fd5b5061078960048036038101906107849190613856565b611cb7565b005b34801561079757600080fd5b506107a0611d6c565b005b3480156107ae57600080fd5b506107b761202a565b6040516107c491906137a0565b60405180910390f35b3480156107d957600080fd5b506107f460048036038101906107ef9190613974565b612030565b60405161080c9c9b9a99989796959493929190613a35565b60405180910390f35b34801561082157600080fd5b5061083c60048036038101906108379190613974565b6123ad565b60405161084991906137a0565b60405180910390f35b34801561085e57600080fd5b50610867612420565b60405161087491906137a0565b60405180910390f35b34801561088957600080fd5b506108a4600480360381019061089f9190613856565b612426565b005b3480156108b257600080fd5b506108bb6124dc565b6040516108c891906137a0565b60405180910390f35b3480156108dd57600080fd5b506108f860048036038101906108f39190613856565b6124e2565b005b34801561090657600080fd5b50610921600480360381019061091c9190613856565b61258a565b005b34801561092f57600080fd5b5061093861263b565b60405161094591906137a0565b60405180910390f35b34801561095a57600080fd5b50610963612641565b60405161097091906137a0565b60405180910390f35b34801561098557600080fd5b506109a0600480360381019061099b9190613856565b612647565b6040516109ad91906137a0565b60405180910390f35b3480156109c257600080fd5b506109dd60048036038101906109d89190613856565b612661565b005b3480156109eb57600080fd5b506109f461271c565b604051610a0191906137a0565b60405180910390f35b348015610a1657600080fd5b50610a316004803603810190610a2c9190613856565b612722565b604051610a3e91906137a0565b60405180910390f35b348015610a5357600080fd5b50610a5c61273f565b604051610a6991906137a0565b60405180910390f35b348015610a7e57600080fd5b50610a996004803603810190610a949190613856565b612745565b005b348015610aa757600080fd5b50610ac26004803603810190610abd9190613856565b612804565b005b348015610ad057600080fd5b50610aeb6004803603810190610ae691906137fd565b6128ac565b005b348015610af957600080fd5b50610b146004803603810190610b0f9190613974565b612959565b604051610b2c9c9b9a99989796959493929190613a35565b60405180910390f35b348015610b4157600080fd5b50610b4a6129d9565b604051610b579190613afe565b60405180910390f35b610b686129ec565b005b348015610b7657600080fd5b50610b916004803603810190610b8c9190613856565b6129ee565b604051610b9f929190613b19565b60405180910390f35b348015610bb457600080fd5b50610bcf6004803603810190610bca9190613856565b612a80565b005b348015610bdd57600080fd5b50610bf86004803603810190610bf39190613974565b612b29565b604051610c059190613afe565b60405180910390f35b348015610c1a57600080fd5b50610c23612c0f565b604051610c3091906137a0565b60405180910390f35b348015610c4557600080fd5b50610c4e612c15565b604051610c5b91906137a0565b60405180910390f35b348015610c7057600080fd5b50610c8b6004803603810190610c8691906138d6565b612c1b565b604051610c9891906137a0565b60405180910390f35b348015610cad57600080fd5b50610cb6612c4b565b604051610cc391906137a0565b60405180910390f35b348015610cd857600080fd5b50610cf36004803603810190610cee9190613856565b612c51565b005b348015610d0157600080fd5b50610d0a612cf9565b604051610d1791906137a0565b60405180910390f35b348015610d2c57600080fd5b50610d476004803603810190610d429190613974565b612cff565b604051610d5491906137a0565b60405180910390f35b348015610d6957600080fd5b50610d846004803603810190610d7f9190613b42565b612dd8565b005b610d8e612ec3565b005b348015610d9c57600080fd5b50610da5613021565b604051610db291906137a0565b60405180910390f35b610dd56004803603810190610dd09190613974565b613029565b005b348015610de357600080fd5b50610dfe6004803603810190610df99190613856565b6130fb565b005b348015610e0c57600080fd5b50610e276004803603810190610e229190613856565b6131b4565b005b348015610e3557600080fd5b50610e506004803603810190610e4b9190613be7565b61325c565b005b348015610e5e57600080fd5b50610e67613391565b604051610e7491906137a0565b60405180910390f35b348015610e8957600080fd5b50610ea46004803603810190610e9f9190613974565b613397565b604051610eb19190613afe565b60405180910390f35b60025481565b600c5481565b6000602160003373ffffffffffffffffffffffffffffffffffffffff1673ffffffffffffffffffffffffffffffffffffffff16815260200190815260200160002060020154905090565b600047905090565b60085481565b6000602160003373ffffffffffffffffffffffffffffffffffffffff1673ffffffffffffffffffffffffffffffffffffffff1681526020019081526020016000209050601660009054906101000a900460ff1680610fc95750602060009054906101000a900473ffffffffffffffffffffffffffffffffffffffff1673ffffffffffffffffffffffffffffffffffffffff163373ffffffffffffffffffffffffffffffffffffffff16145b611008576040517f08c379a0000000000000000000000000000000000000000000000000000000008152600401610fff90613ca4565b60405180910390fd5b6000611012611416565b90506000819050831561108c57600061102b338361160c565b905061104081836133b790919063ffffffff16565b9150600061104d83612722565b90506110668186600101546133b790919063ffffffff16565b8560010181905550611083816010546133b790919063ffffffff16565b60108190555050505b600b546110a68460040154426133e390919063ffffffff16565b106110fb57600a54836009015410156110da576110d1600184600901546133b790919063ffffffff16565b83600901819055505b6110f2600184600a01546133b790919063ffffffff16565b83600a01819055505b6111266111136000548361340a90919063ffffffff16565b84600201546133b790919063ffffffff16565b83600201819055506000836003018190555042836004018190555061116a6111596005548461340a90919063ffffffff16565b6013546133b790919063ffffffff16565b60138190555050505050565b60005481565b601a60009054906101000a900473ffffffffffffffffffffffffffffffffffffffff1673ffffffffffffffffffffffffffffffffffffffff163373ffffffffffffffffffffffffffffffffffffffff161461120c576040517f08c379a000000000000000000000000000000000000000000000000000000000815260040161120390613d10565b60405180910390fd5b601481111561121a57600080fd5b8060048190555050565b600061126e61123560145484613425565b61126960155461126461125e61124d6014548a613425565b6112596015548c613425565b6133b7565b8961340a565b6133b7565b61340a565b90509392505050565b60006112868383601354611224565b905092915050565b601a60009054906101000a900473ffffffffffffffffffffffffffffffffffffffff1673ffffffffffffffffffffffffffffffffffffffff163373ffffffffffffffffffffffffffffffffffffffff161461131e576040517f08c379a000000000000000000000000000000000000000000000000000000000815260040161131590613d10565b60405180910390fd5b600f81111561132c57600080fd5b8060038190555050565b601a60009054906101000a900473ffffffffffffffffffffffffffffffffffffffff1673ffffffffffffffffffffffffffffffffffffffff163373ffffffffffffffffffffffffffffffffffffffff16146113c6576040517f08c379a00000000000000000000000000000000000000000000000000000000081526004016113bd90613d10565b60405180910390fd5b80601a60006101000a81548173ffffffffffffffffffffffffffffffffffffffff021916908373ffffffffffffffffffffffffffffffffffffffff16021790555050565b60185481565b60065481565b600061147561142433612cff565b602160003373ffffffffffffffffffffffffffffffffffffffff1673ffffffffffffffffffffffffffffffffffffffff168152602001908152602001600020600301546133b790919063ffffffff16565b905090565b601a60009054906101000a900473ffffffffffffffffffffffffffffffffffffffff1673ffffffffffffffffffffffffffffffffffffffff163373ffffffffffffffffffffffffffffffffffffffff161461150a576040517f08c379a000000000000000000000000000000000000000000000000000000000815260040161150190613d7c565b60405180910390fd5b601881111561151857600080fd5b603c80826115269190613dcb565b6115309190613dcb565b60198190555050565b601a60009054906101000a900473ffffffffffffffffffffffffffffffffffffffff1673ffffffffffffffffffffffffffffffffffffffff163373ffffffffffffffffffffffffffffffffffffffff16146115c9576040517f08c379a00000000000000000000000000000000000000000000000000000000081526004016115c090613d7c565b60405180910390fd5b670de0b6b3a7640000816115dd9190613dcb565b60078190555050565b60125481565b600080600080600e54600f54601054601154935093509350935090919293565b600080602160008573ffffffffffffffffffffffffffffffffffffffff1673ffffffffffffffffffffffffffffffffffffffff16815260200190815260200160002060090154141561166157600090506116ed565b60006116ba600954602160008773ffffffffffffffffffffffffffffffffffffffff1673ffffffffffffffffffffffffffffffffffffffff1681526020019081526020016000206009015461342590919063ffffffff16565b905060006116e56002546116d7848761342590919063ffffffff16565b61340a90919063ffffffff16565b905080925050505b92915050565b601660009054906101000a900460ff16611742576040517f08c379a000000000000000000000000000000000000000000000000000000000815260040161173990613ca4565b60405180910390fd5b6000602160003373ffffffffffffffffffffffffffffffffffffffff1673ffffffffffffffffffffffffffffffffffffffff16815260200190815260200160002090506007543410156117ca576040517f08c379a00000000000000000000000000000000000000000000000000000000081526004016117c190613e71565b60405180910390fd5b6008546117e43483600001546133b790919063ffffffff16565b1115611825576040517f08c379a000000000000000000000000000000000000000000000000000000000815260040161181c90613edd565b60405180910390fd5b60006118433461183e34476133e390919063ffffffff16565b611277565b905061185c3483600101546133b790919063ffffffff16565b826001018190555061187b3483600001546133b790919063ffffffff16565b826000018190555061189a8183600301546133b790919063ffffffff16565b8260030181905550600073ffffffffffffffffffffffffffffffffffffffff168260050160009054906101000a900473ffffffffffffffffffffffffffffffffffffffff1673ffffffffffffffffffffffffffffffffffffffff161415611a6e573373ffffffffffffffffffffffffffffffffffffffff168373ffffffffffffffffffffffffffffffffffffffff161461197257828260050160006101000a81548173ffffffffffffffffffffffffffffffffffffffff021916908373ffffffffffffffffffffffffffffffffffffffff1602179055505b60008260050160009054906101000a900473ffffffffffffffffffffffffffffffffffffffff169050600073ffffffffffffffffffffffffffffffffffffffff168173ffffffffffffffffffffffffffffffffffffffff1614611a6c57611a256001602160008473ffffffffffffffffffffffffffffffffffffffff1673ffffffffffffffffffffffffffffffffffffffff168152602001908152602001600020600601546133b790919063ffffffff16565b602160008373ffffffffffffffffffffffffffffffffffffffff1673ffffffffffffffffffffffffffffffffffffffff168152602001908152602001600020600601819055505b505b600073ffffffffffffffffffffffffffffffffffffffff168260050160009054906101000a900473ffffffffffffffffffffffffffffffffffffffff1673ffffffffffffffffffffffffffffffffffffffff1614611c515760008260050160009054906101000a900473ffffffffffffffffffffffffffffffffffffffff169050600073ffffffffffffffffffffffffffffffffffffffff168173ffffffffffffffffffffffffffffffffffffffff1614611c4f576000611b4e600254611b406001543461342590919063ffffffff16565b61340a90919063ffffffff16565b90508173ffffffffffffffffffffffffffffffffffffffff166108fc829081150290604051600060405180830381858888f19350505050158015611b96573d6000803e3d6000fd5b50611bec81602160008573ffffffffffffffffffffffffffffffffffffffff1673ffffffffffffffffffffffffffffffffffffffff168152602001908152602001600020600701546133b790919063ffffffff16565b602160008473ffffffffffffffffffffffffffffffffffffffff1673ffffffffffffffffffffffffffffffffffffffff16815260200190815260200160002060070181905550611c47816011546133b790919063ffffffff16565b601181905550505b505b6000611c5c3461346e565b9050611c85611c7482346133e390919063ffffffff16565b600e546133b790919063ffffffff16565b600e81905550611ca16001600f546133b790919063ffffffff16565b600f81905550611cb16000610f1e565b50505050565b601a60009054906101000a900473ffffffffffffffffffffffffffffffffffffffff1673ffffffffffffffffffffffffffffffffffffffff163373ffffffffffffffffffffffffffffffffffffffff1614611d47576040517f08c379a0000000000000000000000000000000000000000000000000000000008152600401611d3e90613d10565b60405180910390fd5b600a8110158015611d59575060648111155b611d6257600080fd5b8060018190555050565b601660009054906101000a900460ff16611dbb576040517f08c379a0000000000000000000000000000000000000000000000000000000008152600401611db290613ca4565b60405180910390fd5b601660019054906101000a900460ff1615611e5e57601760003373ffffffffffffffffffffffffffffffffffffffff1673ffffffffffffffffffffffffffffffffffffffff16815260200190815260200160002060009054906101000a900460ff1615611e5d576040517f08c379a0000000000000000000000000000000000000000000000000000000008152600401611e5490613f49565b60405180910390fd5b5b6000602160003373ffffffffffffffffffffffffffffffffffffffff1673ffffffffffffffffffffffffffffffffffffffff16815260200190815260200160002090506000611eab611416565b90506000611eb882612722565b9050600d5483600901541015611f0a57611f03611ef4600254611ee6600c548561342590919063ffffffff16565b61340a90919063ffffffff16565b826133e390919063ffffffff16565b9050611f1f565b60008360090181905550600083600a01819055505b4283600b018190555060008360030181905550428360040181905550611f64611f536006548461340a90919063ffffffff16565b6013546133b790919063ffffffff16565b60138190555080611f73610f10565b1015611f8457611f81610f10565b90505b6000611fa1611f928361346e565b836133e390919063ffffffff16565b90503373ffffffffffffffffffffffffffffffffffffffff166108fc829081150290604051600060405180830381858888f19350505050158015611fe9573d6000803e3d6000fd5b506120018185600801546133b790919063ffffffff16565b846008018190555061201e816012546133b790919063ffffffff16565b60128190555050505050565b60055481565b600080600080600080600080600080600080602160008e73ffffffffffffffffffffffffffffffffffffffff1673ffffffffffffffffffffffffffffffffffffffff168152602001908152602001600020600001549b50602160008e73ffffffffffffffffffffffffffffffffffffffff1673ffffffffffffffffffffffffffffffffffffffff168152602001908152602001600020600101549a50602160008e73ffffffffffffffffffffffffffffffffffffffff1673ffffffffffffffffffffffffffffffffffffffff168152602001908152602001600020600201549950602160008e73ffffffffffffffffffffffffffffffffffffffff1673ffffffffffffffffffffffffffffffffffffffff168152602001908152602001600020600301549850602160008e73ffffffffffffffffffffffffffffffffffffffff1673ffffffffffffffffffffffffffffffffffffffff168152602001908152602001600020600401549750602160008e73ffffffffffffffffffffffffffffffffffffffff1673ffffffffffffffffffffffffffffffffffffffff16815260200190815260200160002060050160009054906101000a900473ffffffffffffffffffffffffffffffffffffffff169650602160008e73ffffffffffffffffffffffffffffffffffffffff1673ffffffffffffffffffffffffffffffffffffffff168152602001908152602001600020600601549550602160008e73ffffffffffffffffffffffffffffffffffffffff1673ffffffffffffffffffffffffffffffffffffffff168152602001908152602001600020600801549450602160008e73ffffffffffffffffffffffffffffffffffffffff1673ffffffffffffffffffffffffffffffffffffffff168152602001908152602001600020600701549350602160008e73ffffffffffffffffffffffffffffffffffffffff1673ffffffffffffffffffffffffffffffffffffffff168152602001908152602001600020600901549250602160008e73ffffffffffffffffffffffffffffffffffffffff1673ffffffffffffffffffffffffffffffffffffffff168152602001908152602001600020600a01549150602160008e73ffffffffffffffffffffffffffffffffffffffff1673ffffffffffffffffffffffffffffffffffffffff168152602001908152602001600020600b0154905091939597999b5091939597999b565b60008061240d6123bc84612cff565b602160008673ffffffffffffffffffffffffffffffffffffffff1673ffffffffffffffffffffffffffffffffffffffff168152602001908152602001600020600301546133b790919063ffffffff16565b905061241881612722565b915050919050565b60115481565b601a60009054906101000a900473ffffffffffffffffffffffffffffffffffffffff1673ffffffffffffffffffffffffffffffffffffffff163373ffffffffffffffffffffffffffffffffffffffff16146124b6576040517f08c379a00000000000000000000000000000000000000000000000000000000081526004016124ad90613d10565b60405180910390fd5b600a81101580156124c957506103848111155b6124d257600080fd5b8060098190555050565b600b5481565b601a60009054906101000a900473ffffffffffffffffffffffffffffffffffffffff1673ffffffffffffffffffffffffffffffffffffffff163373ffffffffffffffffffffffffffffffffffffffff1614612572576040517f08c379a000000000000000000000000000000000000000000000000000000000815260040161256990613d10565b60405180910390fd5b603281111561258057600080fd5b8060058190555050565b601a60009054906101000a900473ffffffffffffffffffffffffffffffffffffffff1673ffffffffffffffffffffffffffffffffffffffff163373ffffffffffffffffffffffffffffffffffffffff161461261a576040517f08c379a000000000000000000000000000000000000000000000000000000000815260040161261190613d7c565b60405180910390fd5b603c80826126289190613dcb565b6126329190613dcb565b60188190555050565b600f5481565b60105481565b600061265a82612655610f10565b611277565b9050919050565b601a60009054906101000a900473ffffffffffffffffffffffffffffffffffffffff1673ffffffffffffffffffffffffffffffffffffffff163373ffffffffffffffffffffffffffffffffffffffff16146126f1576040517f08c379a00000000000000000000000000000000000000000000000000000000081526004016126e890613d7c565b60405180910390fd5b600a8110156126ff57600080fd5b670de0b6b3a7640000816127139190613dcb565b60088190555050565b600e5481565b600061273882601354612733610f10565b611224565b9050919050565b60195481565b601a60009054906101000a900473ffffffffffffffffffffffffffffffffffffffff1673ffffffffffffffffffffffffffffffffffffffff163373ffffffffffffffffffffffffffffffffffffffff16146127d5576040517f08c379a00000000000000000000000000000000000000000000000000000000081526004016127cc90613d10565b60405180910390fd5b60188111156127e357600080fd5b603c80826127f19190613dcb565b6127fb9190613dcb565b600b8190555050565b601a60009054906101000a900473ffffffffffffffffffffffffffffffffffffffff1673ffffffffffffffffffffffffffffffffffffffff163373ffffffffffffffffffffffffffffffffffffffff1614612894576040517f08c379a000000000000000000000000000000000000000000000000000000000815260040161288b90613d10565b60405180910390fd5b601e8111156128a257600080fd5b80600a8190555050565b601a60009054906101000a900473ffffffffffffffffffffffffffffffffffffffff1673ffffffffffffffffffffffffffffffffffffffff163373ffffffffffffffffffffffffffffffffffffffff161461293c576040517f08c379a000000000000000000000000000000000000000000000000000000000815260040161293390613d10565b60405180910390fd5b80601660016101000a81548160ff02191690831515021790555050565b60216020528060005260406000206000915090508060000154908060010154908060020154908060030154908060040154908060050160009054906101000a900473ffffffffffffffffffffffffffffffffffffffff169080600601549080600701549080600801549080600901549080600a01549080600b015490508c565b601660019054906101000a900460ff1681565b565b6000806000612a2884612a2386612a1588612a07610f10565b6133b790919063ffffffff16565b6133e390919063ffffffff16565b611277565b90506000612a416000548361340a90919063ffffffff16565b905060006201518090506000612a60838361342590919063ffffffff16565b90506000612a6e8289612c1b565b90508381965096505050505050915091565b601a60009054906101000a900473ffffffffffffffffffffffffffffffffffffffff1673ffffffffffffffffffffffffffffffffffffffff163373ffffffffffffffffffffffffffffffffffffffff1614612b10576040517f08c379a0000000000000000000000000000000000000000000000000000000008152600401612b0790613d10565b60405180910390fd5b610384811115612b1f57600080fd5b80600c8190555050565b6000601a60009054906101000a900473ffffffffffffffffffffffffffffffffffffffff1673ffffffffffffffffffffffffffffffffffffffff163373ffffffffffffffffffffffffffffffffffffffff1614612bbb576040517f08c379a0000000000000000000000000000000000000000000000000000000008152600401612bb290613d10565b60405180910390fd5b601760008373ffffffffffffffffffffffffffffffffffffffff1673ffffffffffffffffffffffffffffffffffffffff16815260200190815260200160002060009054906101000a900460ff169050919050565b60015481565b600a5481565b6000612c4383601354612c3e85612c30610f10565b6133b790919063ffffffff16565b611224565b905092915050565b60075481565b601a60009054906101000a900473ffffffffffffffffffffffffffffffffffffffff1673ffffffffffffffffffffffffffffffffffffffff163373ffffffffffffffffffffffffffffffffffffffff1614612ce1576040517f08c379a0000000000000000000000000000000000000000000000000000000008152600401612cd890613d10565b60405180910390fd5b6032811115612cef57600080fd5b8060068190555050565b60095481565b600080612d57602160008573ffffffffffffffffffffffffffffffffffffffff1673ffffffffffffffffffffffffffffffffffffffff16815260200190815260200160002060040154426133e390919063ffffffff16565b90506000612d678260185461376e565b90506000612d776000548361376e565b9050612dce602160008773ffffffffffffffffffffffffffffffffffffffff1673ffffffffffffffffffffffffffffffffffffffff168152602001908152602001600020600201548261342590919063ffffffff16565b9350505050919050565b601a60009054906101000a900473ffffffffffffffffffffffffffffffffffffffff1673ffffffffffffffffffffffffffffffffffffffff163373ffffffffffffffffffffffffffffffffffffffff1614612e68576040517f08c379a0000000000000000000000000000000000000000000000000000000008152600401612e5f90613d10565b60405180910390fd5b80601760008473ffffffffffffffffffffffffffffffffffffffff1673ffffffffffffffffffffffffffffffffffffffff16815260200190815260200160002060006101000a81548160ff0219169083151502179055505050565b602060009054906101000a900473ffffffffffffffffffffffffffffffffffffffff1673ffffffffffffffffffffffffffffffffffffffff163373ffffffffffffffffffffffffffffffffffffffff1614612f53576040517f08c379a0000000000000000000000000000000000000000000000000000000008152600401612f4a90613d10565b60405180910390fd5b6000602160003373ffffffffffffffffffffffffffffffffffffffff1673ffffffffffffffffffffffffffffffffffffffff16815260200190815260200160002090506000612fb434612faf34476133e390919063ffffffff16565b611277565b9050612fcd3483600101546133b790919063ffffffff16565b8260010181905550612fec3483600001546133b790919063ffffffff16565b826000018190555061300b8183600301546133b790919063ffffffff16565b826003018190555061301d6000610f1e565b5050565b600042905090565b601660009054906101000a900460ff166130f857601a60009054906101000a900473ffffffffffffffffffffffffffffffffffffffff1673ffffffffffffffffffffffffffffffffffffffff163373ffffffffffffffffffffffffffffffffffffffff1614156130bc576001601660006101000a81548160ff0219169083151502179055506130b7816116f3565b6130f7565b6040517f08c379a00000000000000000000000000000000000000000000000000000000081526004016130ee90613fb5565b60405180910390fd5b5b50565b601a60009054906101000a900473ffffffffffffffffffffffffffffffffffffffff1673ffffffffffffffffffffffffffffffffffffffff163373ffffffffffffffffffffffffffffffffffffffff161461318b576040517f08c379a000000000000000000000000000000000000000000000000000000000815260040161318290613d10565b60405180910390fd5b6207512081101580156131a15750620afc808111155b6131aa57600080fd5b8060008190555050565b601a60009054906101000a900473ffffffffffffffffffffffffffffffffffffffff1673ffffffffffffffffffffffffffffffffffffffff163373ffffffffffffffffffffffffffffffffffffffff1614613244576040517f08c379a000000000000000000000000000000000000000000000000000000000815260040161323b90613d10565b60405180910390fd5b600c81111561325257600080fd5b80600d8190555050565b601a60009054906101000a900473ffffffffffffffffffffffffffffffffffffffff1673ffffffffffffffffffffffffffffffffffffffff163373ffffffffffffffffffffffffffffffffffffffff16146132ec576040517f08c379a00000000000000000000000000000000000000000000000000000000081526004016132e390613d10565b60405180910390fd5b60005b8383905081101561338b57816017600086868581811061331257613311613fd5565b5b90506020020160208101906133279190613974565b73ffffffffffffffffffffffffffffffffffffffff1673ffffffffffffffffffffffffffffffffffffffff16815260200190815260200160002060006101000a81548160ff021916908315150217905550808061338390614004565b9150506132ef565b50505050565b600d5481565b60176020528060005260406000206000915054906101000a900460ff1681565b60008082846133c6919061404d565b9050838110156133d9576133d86140a3565b5b8091505092915050565b6000828211156133f6576133f56140a3565b5b818361340291906140d2565b905092915050565b60008082846134199190614135565b90508091505092915050565b6000808314156134385760009050613468565b600082846134469190613dcb565b90508284826134559190614135565b14613463576134626140a3565b5b809150505b92915050565b60008061349a60025461348c6003548661342590919063ffffffff16565b61340a90919063ffffffff16565b905060006134c76002546134b96004548761342590919063ffffffff16565b61340a90919063ffffffff16565b9050601b60009054906101000a900473ffffffffffffffffffffffffffffffffffffffff1673ffffffffffffffffffffffffffffffffffffffff166108fc839081150290604051600060405180830381858888f19350505050158015613531573d6000803e3d6000fd5b50601c60009054906101000a900473ffffffffffffffffffffffffffffffffffffffff1673ffffffffffffffffffffffffffffffffffffffff166108fc839081150290604051600060405180830381858888f1935050505015801561359a573d6000803e3d6000fd5b50601d60009054906101000a900473ffffffffffffffffffffffffffffffffffffffff1673ffffffffffffffffffffffffffffffffffffffff166108fc839081150290604051600060405180830381858888f19350505050158015613603573d6000803e3d6000fd5b50601e60009054906101000a900473ffffffffffffffffffffffffffffffffffffffff1673ffffffffffffffffffffffffffffffffffffffff166108fc839081150290604051600060405180830381858888f1935050505015801561366c573d6000803e3d6000fd5b50601f60009054906101000a900473ffffffffffffffffffffffffffffffffffffffff1673ffffffffffffffffffffffffffffffffffffffff166108fc839081150290604051600060405180830381858888f193505050501580156136d5573d6000803e3d6000fd5b50602060009054906101000a900473ffffffffffffffffffffffffffffffffffffffff1673ffffffffffffffffffffffffffffffffffffffff166108fc829081150290604051600060405180830381858888f1935050505015801561373e573d6000803e3d6000fd5b5061376561375660058461342590919063ffffffff16565b826133b790919063ffffffff16565b92505050919050565b600081831061377d578161377f565b825b905092915050565b6000819050919050565b61379a81613787565b82525050565b60006020820190506137b56000830184613791565b92915050565b600080fd5b600080fd5b60008115159050919050565b6137da816137c5565b81146137e557600080fd5b50565b6000813590506137f7816137d1565b92915050565b600060208284031215613813576138126137bb565b5b6000613821848285016137e8565b91505092915050565b61383381613787565b811461383e57600080fd5b50565b6000813590506138508161382a565b92915050565b60006020828403121561386c5761386b6137bb565b5b600061387a84828501613841565b91505092915050565b60008060006060848603121561389c5761389b6137bb565b5b60006138aa86828701613841565b93505060206138bb86828701613841565b92505060406138cc86828701613841565b9150509250925092565b600080604083850312156138ed576138ec6137bb565b5b60006138fb85828601613841565b925050602061390c85828601613841565b9150509250929050565b600073ffffffffffffffffffffffffffffffffffffffff82169050919050565b600061394182613916565b9050919050565b61395181613936565b811461395c57600080fd5b50565b60008135905061396e81613948565b92915050565b60006020828403121561398a576139896137bb565b5b60006139988482850161395f565b91505092915050565b60006080820190506139b66000830187613791565b6139c36020830186613791565b6139d06040830185613791565b6139dd6060830184613791565b95945050505050565b600080604083850312156139fd576139fc6137bb565b5b6000613a0b8582860161395f565b9250506020613a1c85828601613841565b9150509250929050565b613a2f81613936565b82525050565b600061018082019050613a4b600083018f613791565b613a58602083018e613791565b613a65604083018d613791565b613a72606083018c613791565b613a7f608083018b613791565b613a8c60a083018a613a26565b613a9960c0830189613791565b613aa660e0830188613791565b613ab4610100830187613791565b613ac2610120830186613791565b613ad0610140830185613791565b613ade610160830184613791565b9d9c50505050505050505050505050565b613af8816137c5565b82525050565b6000602082019050613b136000830184613aef565b92915050565b6000604082019050613b2e6000830185613791565b613b3b6020830184613791565b9392505050565b60008060408385031215613b5957613b586137bb565b5b6000613b678582860161395f565b9250506020613b78858286016137e8565b9150509250929050565b600080fd5b600080fd5b600080fd5b60008083601f840112613ba757613ba6613b82565b5b8235905067ffffffffffffffff811115613bc457613bc3613b87565b5b602083019150836020820283011115613be057613bdf613b8c565b5b9250929050565b600080600060408486031215613c0057613bff6137bb565b5b600084013567ffffffffffffffff811115613c1e57613c1d6137c0565b5b613c2a86828701613b91565b93509350506020613c3d868287016137e8565b9150509250925092565b600082825260208201905092915050565b7f436f6e7472616374206e6f742079657420537461727465642e00000000000000600082015250565b6000613c8e601983613c47565b9150613c9982613c58565b602082019050919050565b60006020820190508181036000830152613cbd81613c81565b9050919050565b7f41646d696e20757365206f6e6c792e0000000000000000000000000000000000600082015250565b6000613cfa600f83613c47565b9150613d0582613cc4565b602082019050919050565b60006020820190508181036000830152613d2981613ced565b9050919050565b7f41646d696e20757365206f6e6c79000000000000000000000000000000000000600082015250565b6000613d66600e83613c47565b9150613d7182613d30565b602082019050919050565b60006020820190508181036000830152613d9581613d59565b9050919050565b7f4e487b7100000000000000000000000000000000000000000000000000000000600052601160045260246000fd5b6000613dd682613787565b9150613de183613787565b9250817fffffffffffffffffffffffffffffffffffffffffffffffffffffffffffffffff0483118215151615613e1a57613e19613d9c565b5b828202905092915050565b7f4d696e696e756d20696e766573746d656e74206e6f74206d65742e0000000000600082015250565b6000613e5b601b83613c47565b9150613e6682613e25565b602082019050919050565b60006020820190508181036000830152613e8a81613e4e565b9050919050565b7f4d6178206465706f736974206c696d697420726561636865642e000000000000600082015250565b6000613ec7601a83613c47565b9150613ed282613e91565b602082019050919050565b60006020820190508181036000830152613ef681613eba565b9050919050565b7f4164647265737320697320626c61636b6c69737465642e000000000000000000600082015250565b6000613f33601783613c47565b9150613f3e82613efd565b602082019050919050565b60006020820190508181036000830152613f6281613f26565b9050919050565b7f436f6e7472616374206e6f742079657420737461727465642e00000000000000600082015250565b6000613f9f601983613c47565b9150613faa82613f69565b602082019050919050565b60006020820190508181036000830152613fce81613f92565b9050919050565b7f4e487b7100000000000000000000000000000000000000000000000000000000600052603260045260246000fd5b600061400f82613787565b91507fffffffffffffffffffffffffffffffffffffffffffffffffffffffffffffffff82141561404257614041613d9c565b5b600182019050919050565b600061405882613787565b915061406383613787565b9250827fffffffffffffffffffffffffffffffffffffffffffffffffffffffffffffffff0382111561409857614097613d9c565b5b828201905092915050565b7f4e487b7100000000000000000000000000000000000000000000000000000000600052600160045260246000fd5b60006140dd82613787565b91506140e883613787565b9250828210156140fb576140fa613d9c565b5b828203905092915050565b7f4e487b7100000000000000000000000000000000000000000000000000000000600052601260045260246000fd5b600061414082613787565b915061414b83613787565b92508261415b5761415a614106565b5b82820490509291505056fea2646970667358221220834bc4ad6ef86a705cadc819eb993d92456a2356cb2763d437f6dd6759d292a164736f6c63430008090033",
  "linkReferences": {},
  "deployedLinkReferences": {}
}